{
  "_format": "hh-sol-artifact-1",
  "contractName": "AaveVault",
  "sourceName": "contracts/AaveVault.sol",
  "abi": [
    {
      "inputs": [
        {
          "internalType": "contract ERC20",
          "name": "_asset",
          "type": "address"
        },
        {
          "internalType": "string",
          "name": "_name",
          "type": "string"
        },
        {
          "internalType": "string",
          "name": "_symbol",
          "type": "string"
        },
        {
          "internalType": "address",
          "name": "_treasuryAddress",
          "type": "address"
        },
        {
          "internalType": "address",
          "name": "_usdtToken",
          "type": "address"
        },
        {
          "internalType": "address",
          "name": "_xfiAddress",
          "type": "address"
        },
        {
          "internalType": "address",
          "name": "_aaveAToken",
          "type": "address"
        },
        {
          "internalType": "address",
          "name": "_aavePool",
          "type": "address"
        },
        {
          "internalType": "address",
          "name": "_routerAddress",
          "type": "address"
        },
        {
          "internalType": "address",
          "name": "_factoryAddress",
          "type": "address"
        }
      ],
      "stateMutability": "nonpayable",
      "type": "constructor"
    },
    {
      "anonymous": false,
      "inputs": [
        {
          "indexed": true,
          "internalType": "address",
          "name": "owner",
          "type": "address"
        },
        {
          "indexed": true,
          "internalType": "address",
          "name": "spender",
          "type": "address"
        },
        {
          "indexed": false,
          "internalType": "uint256",
          "name": "amount",
          "type": "uint256"
        }
      ],
      "name": "Approval",
      "type": "event"
    },
    {
      "anonymous": false,
      "inputs": [
        {
          "indexed": true,
          "internalType": "address",
          "name": "caller",
          "type": "address"
        },
        {
          "indexed": true,
          "internalType": "address",
          "name": "receiver",
          "type": "address"
        },
        {
          "indexed": false,
          "internalType": "uint256",
          "name": "amountPF",
          "type": "uint256"
        },
        {
          "indexed": false,
          "internalType": "uint256",
          "name": "amountAsset",
          "type": "uint256"
        },
        {
          "indexed": false,
          "internalType": "uint256",
          "name": "amountXXX",
          "type": "uint256"
        }
      ],
      "name": "Claim",
      "type": "event"
    },
    {
      "anonymous": false,
      "inputs": [
        {
          "indexed": true,
          "internalType": "address",
          "name": "caller",
          "type": "address"
        },
        {
          "indexed": true,
          "internalType": "address",
          "name": "receiver",
          "type": "address"
        },
        {
          "indexed": false,
          "internalType": "uint256",
          "name": "assets",
          "type": "uint256"
        }
      ],
      "name": "Deposit",
      "type": "event"
    },
    {
      "anonymous": false,
      "inputs": [
        {
          "indexed": true,
          "internalType": "address",
          "name": "caller",
          "type": "address"
        },
        {
          "indexed": true,
          "internalType": "address",
          "name": "owner",
          "type": "address"
        },
        {
          "indexed": false,
          "internalType": "uint256",
          "name": "assets",
          "type": "uint256"
        },
        {
          "indexed": false,
          "internalType": "uint256",
          "name": "shares",
          "type": "uint256"
        }
      ],
      "name": "Deposit",
      "type": "event"
    },
    {
      "anonymous": false,
      "inputs": [
        {
          "indexed": true,
          "internalType": "address",
          "name": "caller",
          "type": "address"
        },
        {
          "indexed": true,
          "internalType": "address",
          "name": "receiver",
          "type": "address"
        },
        {
          "indexed": false,
          "internalType": "uint256",
          "name": "amount",
          "type": "uint256"
        }
      ],
      "name": "Redeposit",
      "type": "event"
    },
    {
      "anonymous": false,
      "inputs": [
        {
          "indexed": true,
          "internalType": "address",
          "name": "from",
          "type": "address"
        },
        {
          "indexed": true,
          "internalType": "address",
          "name": "to",
          "type": "address"
        },
        {
          "indexed": false,
          "internalType": "uint256",
          "name": "amount",
          "type": "uint256"
        }
      ],
      "name": "Transfer",
      "type": "event"
    },
    {
      "anonymous": false,
      "inputs": [
        {
          "indexed": true,
          "internalType": "address",
          "name": "caller",
          "type": "address"
        },
        {
          "indexed": true,
          "internalType": "address",
          "name": "receiver",
          "type": "address"
        },
        {
          "indexed": false,
          "internalType": "uint256",
          "name": "shares",
          "type": "uint256"
        }
      ],
      "name": "Withdraw",
      "type": "event"
    },
    {
      "anonymous": false,
      "inputs": [
        {
          "indexed": true,
          "internalType": "address",
          "name": "caller",
          "type": "address"
        },
        {
          "indexed": true,
          "internalType": "address",
          "name": "receiver",
          "type": "address"
        },
        {
          "indexed": true,
          "internalType": "address",
          "name": "owner",
          "type": "address"
        },
        {
          "indexed": false,
          "internalType": "uint256",
          "name": "assets",
          "type": "uint256"
        },
        {
          "indexed": false,
          "internalType": "uint256",
          "name": "shares",
          "type": "uint256"
        }
      ],
      "name": "Withdraw",
      "type": "event"
    },
    {
      "inputs": [],
      "name": "DOMAIN_SEPARATOR",
      "outputs": [
        {
          "internalType": "bytes32",
          "name": "",
          "type": "bytes32"
        }
      ],
      "stateMutability": "view",
      "type": "function"
    },
    {
      "inputs": [],
      "name": "USDT",
      "outputs": [
        {
          "internalType": "address",
          "name": "",
          "type": "address"
        }
      ],
      "stateMutability": "view",
      "type": "function"
    },
    {
      "inputs": [],
      "name": "XFI",
      "outputs": [
        {
          "internalType": "address",
          "name": "",
          "type": "address"
        }
      ],
      "stateMutability": "view",
      "type": "function"
    },
    {
      "inputs": [
        {
          "internalType": "uint256",
          "name": "_assets",
          "type": "uint256"
        },
        {
          "internalType": "address",
          "name": "_receiver",
          "type": "address"
        }
      ],
      "name": "_deposit",
      "outputs": [],
      "stateMutability": "payable",
      "type": "function"
    },
    {
      "inputs": [
        {
          "internalType": "uint256",
          "name": "_shares",
          "type": "uint256"
        },
        {
          "internalType": "address",
          "name": "_receiver",
          "type": "address"
        }
      ],
      "name": "_withdraw",
      "outputs": [],
      "stateMutability": "nonpayable",
      "type": "function"
    },
    {
      "inputs": [],
      "name": "aToken",
      "outputs": [
        {
          "internalType": "address",
          "name": "",
          "type": "address"
        }
      ],
      "stateMutability": "view",
      "type": "function"
    },
    {
      "inputs": [],
      "name": "aavePool",
      "outputs": [
        {
          "internalType": "address",
          "name": "",
          "type": "address"
        }
      ],
      "stateMutability": "view",
      "type": "function"
    },
    {
      "inputs": [
        {
          "internalType": "address",
          "name": "token0",
          "type": "address"
        },
        {
          "internalType": "address",
          "name": "token1",
          "type": "address"
        },
        {
          "internalType": "uint256",
          "name": "amount0Desired",
          "type": "uint256"
        },
        {
          "internalType": "uint256",
          "name": "amount1Desired",
          "type": "uint256"
        },
        {
          "internalType": "address",
          "name": "to",
          "type": "address"
        }
      ],
      "name": "addLiquidityWithERC20",
      "outputs": [
        {
          "internalType": "uint256",
          "name": "",
          "type": "uint256"
        }
      ],
      "stateMutability": "nonpayable",
      "type": "function"
    },
    {
      "inputs": [
        {
          "internalType": "uint256",
          "name": "amountXXX",
          "type": "uint256"
        }
      ],
      "name": "addXXXForVault",
      "outputs": [],
      "stateMutability": "nonpayable",
      "type": "function"
    },
    {
      "inputs": [
        {
          "internalType": "address",
          "name": "",
          "type": "address"
        },
        {
          "internalType": "address",
          "name": "",
          "type": "address"
        }
      ],
      "name": "allowance",
      "outputs": [
        {
          "internalType": "uint256",
          "name": "",
          "type": "uint256"
        }
      ],
      "stateMutability": "view",
      "type": "function"
    },
    {
      "inputs": [
        {
          "internalType": "address",
          "name": "spender",
          "type": "address"
        },
        {
          "internalType": "uint256",
          "name": "amount",
          "type": "uint256"
        }
      ],
      "name": "approve",
      "outputs": [
        {
          "internalType": "bool",
          "name": "",
          "type": "bool"
        }
      ],
      "stateMutability": "nonpayable",
      "type": "function"
    },
    {
      "inputs": [],
      "name": "asset",
      "outputs": [
        {
          "internalType": "contract ERC20",
          "name": "",
          "type": "address"
        }
      ],
      "stateMutability": "view",
      "type": "function"
    },
    {
      "inputs": [
        {
          "internalType": "address",
          "name": "",
          "type": "address"
        }
      ],
      "name": "balanceOf",
      "outputs": [
        {
          "internalType": "uint256",
          "name": "",
          "type": "uint256"
        }
      ],
      "stateMutability": "view",
      "type": "function"
    },
    {
      "inputs": [
        {
          "internalType": "address",
          "name": "_receiver",
          "type": "address"
        }
      ],
      "name": "claim",
      "outputs": [],
      "stateMutability": "nonpayable",
      "type": "function"
    },
    {
      "inputs": [
        {
          "internalType": "uint256",
          "name": "shares",
          "type": "uint256"
        }
      ],
      "name": "convertToAssets",
      "outputs": [
        {
          "internalType": "uint256",
          "name": "",
          "type": "uint256"
        }
      ],
      "stateMutability": "view",
      "type": "function"
    },
    {
      "inputs": [
        {
          "internalType": "uint256",
          "name": "assets",
          "type": "uint256"
        }
      ],
      "name": "convertToShares",
      "outputs": [
        {
          "internalType": "uint256",
          "name": "",
          "type": "uint256"
        }
      ],
      "stateMutability": "view",
      "type": "function"
    },
    {
      "inputs": [],
      "name": "decimals",
      "outputs": [
        {
          "internalType": "uint8",
          "name": "",
          "type": "uint8"
        }
      ],
      "stateMutability": "view",
      "type": "function"
    },
    {
      "inputs": [
        {
          "internalType": "uint256",
          "name": "assets",
          "type": "uint256"
        },
        {
          "internalType": "address",
          "name": "receiver",
          "type": "address"
        }
      ],
      "name": "deposit",
      "outputs": [
        {
          "internalType": "uint256",
          "name": "shares",
          "type": "uint256"
        }
      ],
      "stateMutability": "nonpayable",
      "type": "function"
    },
    {
      "inputs": [],
      "name": "getAllUsers",
      "outputs": [
        {
          "components": [
            {
              "internalType": "address",
              "name": "_address",
              "type": "address"
            },
            {
              "internalType": "uint256",
              "name": "_depositAmount",
              "type": "uint256"
            },
            {
              "internalType": "uint256",
              "name": "_lastDepositedTime",
              "type": "uint256"
            },
            {
              "internalType": "uint256",
              "name": "_lastClaimedTime",
              "type": "uint256"
            }
          ],
          "internalType": "struct AaveVault.User[]",
          "name": "",
          "type": "tuple[]"
        }
      ],
      "stateMutability": "view",
      "type": "function"
    },
    {
      "inputs": [
        {
          "internalType": "uint256",
          "name": "_depositedAmount",
          "type": "uint256"
        }
      ],
      "name": "getPFAsset",
      "outputs": [
        {
          "internalType": "uint256",
          "name": "",
          "type": "uint256"
        }
      ],
      "stateMutability": "view",
      "type": "function"
    },
    {
      "inputs": [
        {
          "internalType": "address",
          "name": "token0",
          "type": "address"
        },
        {
          "internalType": "address",
          "name": "token1",
          "type": "address"
        }
      ],
      "name": "getReserveAmount",
      "outputs": [
        {
          "internalType": "uint256",
          "name": "",
          "type": "uint256"
        },
        {
          "internalType": "uint256",
          "name": "",
          "type": "uint256"
        }
      ],
      "stateMutability": "view",
      "type": "function"
    },
    {
      "inputs": [
        {
          "internalType": "uint256",
          "name": "_depositedAmount",
          "type": "uint256"
        }
      ],
      "name": "getRewardAsset",
      "outputs": [
        {
          "internalType": "uint256",
          "name": "",
          "type": "uint256"
        }
      ],
      "stateMutability": "view",
      "type": "function"
    },
    {
      "inputs": [
        {
          "internalType": "uint256",
          "name": "_depositedAmount",
          "type": "uint256"
        }
      ],
      "name": "getRewardXXX",
      "outputs": [
        {
          "internalType": "uint256",
          "name": "",
          "type": "uint256"
        }
      ],
      "stateMutability": "view",
      "type": "function"
    },
    {
      "inputs": [
        {
          "internalType": "address",
          "name": "userAddress",
          "type": "address"
        }
      ],
      "name": "getUserInfo",
      "outputs": [
        {
          "components": [
            {
              "internalType": "address",
              "name": "_address",
              "type": "address"
            },
            {
              "internalType": "uint256",
              "name": "_depositAmount",
              "type": "uint256"
            },
            {
              "internalType": "uint256",
              "name": "_lastDepositedTime",
              "type": "uint256"
            },
            {
              "internalType": "uint256",
              "name": "_lastClaimedTime",
              "type": "uint256"
            }
          ],
          "internalType": "struct AaveVault.User",
          "name": "",
          "type": "tuple"
        }
      ],
      "stateMutability": "view",
      "type": "function"
    },
    {
      "inputs": [
        {
          "internalType": "uint256",
          "name": "_amount",
          "type": "uint256"
        }
      ],
      "name": "getUserReward",
      "outputs": [
        {
          "internalType": "uint256",
          "name": "",
          "type": "uint256"
        }
      ],
      "stateMutability": "view",
      "type": "function"
    },
    {
      "inputs": [],
      "name": "getVaultAPY",
      "outputs": [
        {
          "internalType": "uint256",
          "name": "",
          "type": "uint256"
        }
      ],
      "stateMutability": "view",
      "type": "function"
    },
    {
      "inputs": [
        {
          "internalType": "address",
          "name": "_address",
          "type": "address"
        }
      ],
      "name": "isVaultUser",
      "outputs": [
        {
          "internalType": "bool",
          "name": "",
          "type": "bool"
        }
      ],
      "stateMutability": "view",
      "type": "function"
    },
    {
      "inputs": [],
      "name": "lastVaultDepositedTime",
      "outputs": [
        {
          "internalType": "uint256",
          "name": "",
          "type": "uint256"
        }
      ],
      "stateMutability": "view",
      "type": "function"
    },
    {
      "inputs": [
        {
          "internalType": "address",
          "name": "",
          "type": "address"
        }
      ],
      "name": "maxDeposit",
      "outputs": [
        {
          "internalType": "uint256",
          "name": "",
          "type": "uint256"
        }
      ],
      "stateMutability": "view",
      "type": "function"
    },
    {
      "inputs": [
        {
          "internalType": "address",
          "name": "",
          "type": "address"
        }
      ],
      "name": "maxMint",
      "outputs": [
        {
          "internalType": "uint256",
          "name": "",
          "type": "uint256"
        }
      ],
      "stateMutability": "view",
      "type": "function"
    },
    {
      "inputs": [
        {
          "internalType": "address",
          "name": "owner",
          "type": "address"
        }
      ],
      "name": "maxRedeem",
      "outputs": [
        {
          "internalType": "uint256",
          "name": "",
          "type": "uint256"
        }
      ],
      "stateMutability": "view",
      "type": "function"
    },
    {
      "inputs": [
        {
          "internalType": "address",
          "name": "owner",
          "type": "address"
        }
      ],
      "name": "maxWithdraw",
      "outputs": [
        {
          "internalType": "uint256",
          "name": "",
          "type": "uint256"
        }
      ],
      "stateMutability": "view",
      "type": "function"
    },
    {
      "inputs": [
        {
          "internalType": "uint256",
          "name": "shares",
          "type": "uint256"
        },
        {
          "internalType": "address",
          "name": "receiver",
          "type": "address"
        }
      ],
      "name": "mint",
      "outputs": [
        {
          "internalType": "uint256",
          "name": "assets",
          "type": "uint256"
        }
      ],
      "stateMutability": "nonpayable",
      "type": "function"
    },
    {
      "inputs": [],
      "name": "name",
      "outputs": [
        {
          "internalType": "string",
          "name": "",
          "type": "string"
        }
      ],
      "stateMutability": "view",
      "type": "function"
    },
    {
      "inputs": [
        {
          "internalType": "address",
          "name": "",
          "type": "address"
        }
      ],
      "name": "nonces",
      "outputs": [
        {
          "internalType": "uint256",
          "name": "",
          "type": "uint256"
        }
      ],
      "stateMutability": "view",
      "type": "function"
    },
    {
      "inputs": [],
      "name": "owner",
      "outputs": [
        {
          "internalType": "address",
          "name": "",
          "type": "address"
        }
      ],
      "stateMutability": "view",
      "type": "function"
    },
    {
      "inputs": [
        {
          "internalType": "address",
          "name": "owner",
          "type": "address"
        },
        {
          "internalType": "address",
          "name": "spender",
          "type": "address"
        },
        {
          "internalType": "uint256",
          "name": "value",
          "type": "uint256"
        },
        {
          "internalType": "uint256",
          "name": "deadline",
          "type": "uint256"
        },
        {
          "internalType": "uint8",
          "name": "v",
          "type": "uint8"
        },
        {
          "internalType": "bytes32",
          "name": "r",
          "type": "bytes32"
        },
        {
          "internalType": "bytes32",
          "name": "s",
          "type": "bytes32"
        }
      ],
      "name": "permit",
      "outputs": [],
      "stateMutability": "nonpayable",
      "type": "function"
    },
    {
      "inputs": [
        {
          "internalType": "uint256",
          "name": "assets",
          "type": "uint256"
        }
      ],
      "name": "previewDeposit",
      "outputs": [
        {
          "internalType": "uint256",
          "name": "",
          "type": "uint256"
        }
      ],
      "stateMutability": "view",
      "type": "function"
    },
    {
      "inputs": [
        {
          "internalType": "uint256",
          "name": "shares",
          "type": "uint256"
        }
      ],
      "name": "previewMint",
      "outputs": [
        {
          "internalType": "uint256",
          "name": "",
          "type": "uint256"
        }
      ],
      "stateMutability": "view",
      "type": "function"
    },
    {
      "inputs": [
        {
          "internalType": "address",
          "name": "token0",
          "type": "address"
        },
        {
          "internalType": "address",
          "name": "token1",
          "type": "address"
        },
        {
          "internalType": "uint256",
          "name": "amountIn",
          "type": "uint256"
        }
      ],
      "name": "previewQuoteAmountOut",
      "outputs": [
        {
          "internalType": "uint256",
          "name": "",
          "type": "uint256"
        }
      ],
      "stateMutability": "view",
      "type": "function"
    },
    {
      "inputs": [
        {
          "internalType": "uint256",
          "name": "shares",
          "type": "uint256"
        }
      ],
      "name": "previewRedeem",
      "outputs": [
        {
          "internalType": "uint256",
          "name": "",
          "type": "uint256"
        }
      ],
      "stateMutability": "view",
      "type": "function"
    },
    {
      "inputs": [
        {
          "internalType": "address",
          "name": "token0",
          "type": "address"
        },
        {
          "internalType": "address",
          "name": "token1",
          "type": "address"
        },
        {
          "internalType": "uint256",
          "name": "amountIn",
          "type": "uint256"
        }
      ],
      "name": "previewSwapAmountOut",
      "outputs": [
        {
          "internalType": "uint256",
          "name": "",
          "type": "uint256"
        }
      ],
      "stateMutability": "view",
      "type": "function"
    },
    {
      "inputs": [
        {
          "internalType": "uint256",
          "name": "assets",
          "type": "uint256"
        }
      ],
      "name": "previewWithdraw",
      "outputs": [
        {
          "internalType": "uint256",
          "name": "",
          "type": "uint256"
        }
      ],
      "stateMutability": "view",
      "type": "function"
    },
    {
      "inputs": [
        {
          "internalType": "uint256",
          "name": "shares",
          "type": "uint256"
        },
        {
          "internalType": "address",
          "name": "receiver",
          "type": "address"
        },
        {
          "internalType": "address",
          "name": "owner",
          "type": "address"
        }
      ],
      "name": "redeem",
      "outputs": [
        {
          "internalType": "uint256",
          "name": "assets",
          "type": "uint256"
        }
      ],
      "stateMutability": "nonpayable",
      "type": "function"
    },
    {
      "inputs": [],
      "name": "redeposit",
      "outputs": [],
      "stateMutability": "nonpayable",
      "type": "function"
    },
    {
      "inputs": [
        {
          "internalType": "address",
          "name": "token0",
          "type": "address"
        },
        {
          "internalType": "address",
          "name": "token1",
          "type": "address"
        },
        {
          "internalType": "uint256",
          "name": "amount",
          "type": "uint256"
        },
        {
          "internalType": "address",
          "name": "to",
          "type": "address"
        }
      ],
      "name": "removeLiquidityWithERC20",
      "outputs": [
        {
          "internalType": "uint256",
          "name": "",
          "type": "uint256"
        },
        {
          "internalType": "uint256",
          "name": "",
          "type": "uint256"
        }
      ],
      "stateMutability": "nonpayable",
      "type": "function"
    },
    {
      "inputs": [
        {
          "internalType": "uint256",
          "name": "amountXXX",
          "type": "uint256"
        }
      ],
      "name": "removeXXXFromVault",
      "outputs": [],
      "stateMutability": "nonpayable",
      "type": "function"
    },
    {
      "inputs": [
        {
          "internalType": "address",
          "name": "token0",
          "type": "address"
        },
        {
          "internalType": "address",
          "name": "token1",
          "type": "address"
        },
        {
          "internalType": "uint256",
          "name": "amountIn",
          "type": "uint256"
        },
        {
          "internalType": "uint256",
          "name": "amountOutMin",
          "type": "uint256"
        },
        {
          "internalType": "address",
          "name": "to",
          "type": "address"
        }
      ],
      "name": "swapExactToken0ForToken1",
      "outputs": [
        {
          "internalType": "uint256",
          "name": "",
          "type": "uint256"
        }
      ],
      "stateMutability": "nonpayable",
      "type": "function"
    },
    {
      "inputs": [
        {
          "internalType": "address",
          "name": "token0",
          "type": "address"
        },
        {
          "internalType": "address",
          "name": "token1",
          "type": "address"
        },
        {
          "internalType": "uint256",
          "name": "amountOut",
          "type": "uint256"
        },
        {
          "internalType": "uint256",
          "name": "amountInMax",
          "type": "uint256"
        },
        {
          "internalType": "address",
          "name": "to",
          "type": "address"
        }
      ],
      "name": "swapToken0ForExactToken1",
      "outputs": [
        {
          "internalType": "uint256",
          "name": "",
          "type": "uint256"
        }
      ],
      "stateMutability": "nonpayable",
      "type": "function"
    },
    {
      "inputs": [],
      "name": "symbol",
      "outputs": [
        {
          "internalType": "string",
          "name": "",
          "type": "string"
        }
      ],
      "stateMutability": "view",
      "type": "function"
    },
    {
      "inputs": [],
      "name": "totalAssets",
      "outputs": [
        {
          "internalType": "uint256",
          "name": "",
          "type": "uint256"
        }
      ],
      "stateMutability": "view",
      "type": "function"
    },
    {
      "inputs": [
        {
          "internalType": "address",
          "name": "_user",
          "type": "address"
        }
      ],
      "name": "totalAssetsOfUser",
      "outputs": [
        {
          "internalType": "uint256",
          "name": "",
          "type": "uint256"
        }
      ],
      "stateMutability": "view",
      "type": "function"
    },
    {
      "inputs": [],
      "name": "totalSupply",
      "outputs": [
        {
          "internalType": "uint256",
          "name": "",
          "type": "uint256"
        }
      ],
      "stateMutability": "view",
      "type": "function"
    },
    {
      "inputs": [],
      "name": "totalValueLocked",
      "outputs": [
        {
          "internalType": "uint256",
          "name": "",
          "type": "uint256"
        }
      ],
      "stateMutability": "view",
      "type": "function"
    },
    {
      "inputs": [
        {
          "internalType": "address",
          "name": "to",
          "type": "address"
        },
        {
          "internalType": "uint256",
          "name": "amount",
          "type": "uint256"
        }
      ],
      "name": "transfer",
      "outputs": [
        {
          "internalType": "bool",
          "name": "",
          "type": "bool"
        }
      ],
      "stateMutability": "nonpayable",
      "type": "function"
    },
    {
      "inputs": [
        {
          "internalType": "address",
          "name": "from",
          "type": "address"
        },
        {
          "internalType": "address",
          "name": "to",
          "type": "address"
        },
        {
          "internalType": "uint256",
          "name": "amount",
          "type": "uint256"
        }
      ],
      "name": "transferFrom",
      "outputs": [
        {
          "internalType": "bool",
          "name": "",
          "type": "bool"
        }
      ],
      "stateMutability": "nonpayable",
      "type": "function"
    },
    {
      "inputs": [],
      "name": "treasury",
      "outputs": [
        {
          "internalType": "address",
          "name": "",
          "type": "address"
        }
      ],
      "stateMutability": "view",
      "type": "function"
    },
    {
      "inputs": [],
      "name": "uniswapFactory",
      "outputs": [
        {
          "internalType": "address",
          "name": "",
          "type": "address"
        }
      ],
      "stateMutability": "view",
      "type": "function"
    },
    {
      "inputs": [],
      "name": "uniswapRouter",
      "outputs": [
        {
          "internalType": "address",
          "name": "",
          "type": "address"
        }
      ],
      "stateMutability": "view",
      "type": "function"
    },
    {
      "inputs": [],
      "name": "vaultTokenName",
      "outputs": [
        {
          "internalType": "string",
          "name": "",
          "type": "string"
        }
      ],
      "stateMutability": "view",
      "type": "function"
    },
    {
      "inputs": [],
      "name": "vaultTokenSymbol",
      "outputs": [
        {
          "internalType": "string",
          "name": "",
          "type": "string"
        }
      ],
      "stateMutability": "view",
      "type": "function"
    },
    {
      "inputs": [
        {
          "internalType": "uint256",
          "name": "assets",
          "type": "uint256"
        },
        {
          "internalType": "address",
          "name": "receiver",
          "type": "address"
        },
        {
          "internalType": "address",
          "name": "owner",
          "type": "address"
        }
      ],
      "name": "withdraw",
      "outputs": [
        {
          "internalType": "uint256",
          "name": "shares",
          "type": "uint256"
        }
      ],
      "stateMutability": "nonpayable",
      "type": "function"
    }
  ],
  "bytecode": "0x6101006040523480156200001257600080fd5b5060405162005d5338038062005d53833981016040819052620000359162000318565b8989898181846001600160a01b031663313ce5676040518163ffffffff1660e01b8152600401602060405180830381865afa15801562000079573d6000803e3d6000fd5b505050506040513d601f19601f820116820180604052508101906200009f91906200041a565b6000620000ad8482620004d7565b506001620000bc8382620004d7565b5060ff81166080524660a052620000d262000197565b60c0525050506001600160a01b0390921660e0525060069050620000f78a82620004d7565b506007620001068982620004d7565b5060088054336001600160a01b0319918216179091556009805482166001600160a01b03998a16179055600a8054821697891697909717909655600b8054871695881695909517909455600c8054861693871693909317909255600d80548516918616919091179055600e80548416918516919091179055600f805490921692169190911790555062000621915050565b60007f8b73c3c69bb8fe3d512ecc4cf759cc79239f7b179b0ffacaa9a75d522b39400f6000604051620001cb9190620005a3565b6040805191829003822060208301939093528101919091527fc89efdaa54c0f20c7adf612882df0950f5a951637e0307cdcb4c672f298b8bc660608201524660808201523060a082015260c00160405160208183030381529060405280519060200120905090565b80516001600160a01b03811681146200024b57600080fd5b919050565b634e487b7160e01b600052604160045260246000fd5b600082601f8301126200027857600080fd5b81516001600160401b038082111562000295576200029562000250565b604051601f8301601f19908116603f01168101908282118183101715620002c057620002c062000250565b8160405283815260209250866020858801011115620002de57600080fd5b600091505b83821015620003025785820183015181830184015290820190620002e3565b6000602085830101528094505050505092915050565b6000806000806000806000806000806101408b8d0312156200033957600080fd5b620003448b62000233565b60208c0151909a506001600160401b03808211156200036257600080fd5b620003708e838f0162000266565b9a5060408d01519150808211156200038757600080fd5b50620003968d828e0162000266565b985050620003a760608c0162000233565b9650620003b760808c0162000233565b9550620003c760a08c0162000233565b9450620003d760c08c0162000233565b9350620003e760e08c0162000233565b9250620003f86101008c0162000233565b9150620004096101208c0162000233565b90509295989b9194979a5092959850565b6000602082840312156200042d57600080fd5b815160ff811681146200043f57600080fd5b9392505050565b600181811c908216806200045b57607f821691505b6020821081036200047c57634e487b7160e01b600052602260045260246000fd5b50919050565b601f821115620004d2576000816000526020600020601f850160051c81016020861015620004ad5750805b601f850160051c820191505b81811015620004ce57828155600101620004b9565b5050505b505050565b81516001600160401b03811115620004f357620004f362000250565b6200050b8162000504845462000446565b8462000482565b602080601f8311600181146200054357600084156200052a5750858301515b600019600386901b1c1916600185901b178555620004ce565b600085815260208120601f198616915b82811015620005745788860151825594840194600190910190840162000553565b5085821015620005935787850151600019600388901b60f8161c191681555b5050505050600190811b01905550565b6000808354620005b38162000446565b60018281168015620005ce5760018114620005e45762000615565b60ff198416875282151583028701945062000615565b8760005260208060002060005b858110156200060c5781548a820152908401908201620005f1565b50505082870194505b50929695505050505050565b60805160a05160c05160e0516156346200071f600039600081816105fb01528181610bd901528181610e1e01528181610ee101528181610f770152818161100d0152818161109f015281816114e30152818161192801528181611a3a01528181611ad101528181611b6a015281816120090152818161272b01528181612862015281816128ce0152818161295401528181612a4f01528181612d3601528181612dd601528181612e6f0152818161308d015281816131ef01528181613b1701528181613b5101528181614525015281816146330152818161469a015261471b015260006118d7015260006118a70152600061051601526156346000f3fe6080604052600436106103ad5760003560e01c80637ecebe00116101e7578063b3d7f6b91161010d578063ce96cb77116100a0578063e2842d791161006f578063e2842d7914610b49578063e85f829714610b6b578063ec18154e14610b8b578063ef8b30f714610ba157600080fd5b8063ce96cb7714610a9b578063d505accf14610abb578063d905777e14610adb578063dd62ed3e14610b1157600080fd5b8063c54e44eb116100dc578063c54e44eb14610a3b578063c63d75b614610635578063c6e6f59214610a5b578063ca332fca14610a7b57600080fd5b8063b3d7f6b9146109bb578063b460af94146109db578063b62948b7146109fb578063ba08765214610a1b57600080fd5b806395d89b4111610185578063a0c1f15e11610154578063a0c1f15e14610946578063a9059cbb14610966578063ad92350514610986578063ade803b91461099b57600080fd5b806395d89b41146108db578063980668ff146108f05780639fb08cb714610906578063a03e4bc31461092657600080fd5b80638da5cb5b116101c15780638da5cb5b14610871578063914c547e1461089157806392ea91f6146108a657806394bf804d146108bb57600080fd5b80637ecebe00146108045780638bdb2afa146108315780638caa4f351461085157600080fd5b8063373fee25116102d75780636386c1c71161026a578063714fb20d11610239578063714fb20d14610784578063735de9f7146107a457806375ec3f21146107c45780637e7d05e8146107e457600080fd5b80636386c1c7146106ea5780636d894702146107175780636e553f651461073757806370a082311461075757600080fd5b8063463cd970116102a6578063463cd9701461067757806349719ad71461068a5780634cdad506146106aa57806361d027b3146106ca57600080fd5b8063373fee25146105d457806338d52e0f146105e9578063402d267d1461063557806345be27b61461065757600080fd5b806323a988811161034f57806333dc8cf81161031e57806333dc8cf81461054a578063353e45021461056a578063361820f31461059f5780633644e515146105bf57600080fd5b806323a98881146104a457806323b872dd146104c4578063293311ab146104e4578063313ce5671461050457600080fd5b8063095ea7b31161038b578063095ea7b31461041c5780630a28a4771461044c57806318160ddd1461046c5780631e83409a1461048257600080fd5b806301e1d114146103b257806306fdde03146103da57806307a2d13a146103fc575b600080fd5b3480156103be57600080fd5b506103c7610bc1565b6040519081526020015b60405180910390f35b3480156103e657600080fd5b506103ef610c52565b6040516103d19190614c5c565b34801561040857600080fd5b506103c7610417366004614cab565b610ce0565b34801561042857600080fd5b5061043c610437366004614cdc565b610d0d565b60405190151581526020016103d1565b34801561045857600080fd5b506103c7610467366004614cab565b610d7a565b34801561047857600080fd5b506103c760025481565b34801561048e57600080fd5b506104a261049d366004614d08565b610d9a565b005b3480156104b057600080fd5b506103c76104bf366004614cab565b61126a565b3480156104d057600080fd5b5061043c6104df366004614d25565b6112c5565b3480156104f057600080fd5b506104a26104ff366004614d66565b6113a5565b34801561051057600080fd5b506105387f000000000000000000000000000000000000000000000000000000000000000081565b60405160ff90911681526020016103d1565b34801561055657600080fd5b506104a2610565366004614cab565b6115db565b34801561057657600080fd5b5061058a610585366004614d96565b6116f4565b604080519283526020830191909152016103d1565b3480156105ab57600080fd5b506103c76105ba366004614d25565b611878565b3480156105cb57600080fd5b506103c76118a3565b3480156105e057600080fd5b506103ef6118f9565b3480156105f557600080fd5b5061061d7f000000000000000000000000000000000000000000000000000000000000000081565b6040516001600160a01b0390911681526020016103d1565b34801561064157600080fd5b506103c7610650366004614d08565b5060001990565b34801561066357600080fd5b506103c7610672366004614d08565b611906565b6104a2610685366004614d66565b611995565b34801561069657600080fd5b506103c76106a5366004614dc4565b611c79565b3480156106b657600080fd5b506103c76106c5366004614cab565b611e8c565b3480156106d657600080fd5b5060095461061d906001600160a01b031681565b3480156106f657600080fd5b5061070a610705366004614d08565b611e97565b6040516103d19190614e23565b34801561072357600080fd5b506104a2610732366004614cab565b611f53565b34801561074357600080fd5b506103c7610752366004614d66565b611fb1565b34801561076357600080fd5b506103c7610772366004614d08565b60036020526000908152604090205481565b34801561079057600080fd5b506103c761079f366004614cab565b612087565b3480156107b057600080fd5b50600e5461061d906001600160a01b031681565b3480156107d057600080fd5b506103c76107df366004614dc4565b6120c8565b3480156107f057600080fd5b506103c76107ff366004614dc4565b612436565b34801561081057600080fd5b506103c761081f366004614d08565b60056020526000908152604090205481565b34801561083d57600080fd5b50600f5461061d906001600160a01b031681565b34801561085d57600080fd5b506103c761086c366004614cab565b6126f3565b34801561087d57600080fd5b5060085461061d906001600160a01b031681565b34801561089d57600080fd5b506103ef6129e6565b3480156108b257600080fd5b506103c76129f3565b3480156108c757600080fd5b506103c76108d6366004614d66565b612a35565b3480156108e757600080fd5b506103ef612ac4565b3480156108fc57600080fd5b506103c760115481565b34801561091257600080fd5b506103c7610921366004614cab565b612ad1565b34801561093257600080fd5b50600d5461061d906001600160a01b031681565b34801561095257600080fd5b50600c5461061d906001600160a01b031681565b34801561097257600080fd5b5061043c610981366004614cdc565b612c07565b34801561099257600080fd5b506104a2612c6d565b3480156109a757600080fd5b5061043c6109b6366004614d08565b612f26565b3480156109c757600080fd5b506103c76109d6366004614cab565b612f91565b3480156109e757600080fd5b506103c76109f6366004614e57565b612fb0565b348015610a0757600080fd5b506103c7610a16366004614d25565b6130b4565b348015610a2757600080fd5b506103c7610a36366004614e57565b6130d4565b348015610a4757600080fd5b50600a5461061d906001600160a01b031681565b348015610a6757600080fd5b506103c7610a76366004614cab565b613216565b348015610a8757600080fd5b5061058a610a96366004614e99565b613236565b348015610aa757600080fd5b506103c7610ab6366004614d08565b613622565b348015610ac757600080fd5b506104a2610ad6366004614efb565b613644565b348015610ae757600080fd5b506103c7610af6366004614d08565b6001600160a01b031660009081526003602052604090205490565b348015610b1d57600080fd5b506103c7610b2c366004614d96565b600460209081526000928352604080842090915290825290205481565b348015610b5557600080fd5b50610b5e61387c565b6040516103d19190614f6c565b348015610b7757600080fd5b50600b5461061d906001600160a01b031681565b348015610b9757600080fd5b506103c760105481565b348015610bad57600080fd5b506103c7610bbc366004614cab565b6139b0565b6040516370a0823160e01b81523060048201526000907f00000000000000000000000000000000000000000000000000000000000000006001600160a01b0316906370a08231906024015b602060405180830381865afa158015610c29573d6000803e3d6000fd5b505050506040513d601f19601f82011682018060405250810190610c4d9190614fe1565b905090565b60008054610c5f90614ffa565b80601f0160208091040260200160405190810160405280929190818152602001828054610c8b90614ffa565b8015610cd85780601f10610cad57610100808354040283529160200191610cd8565b820191906000526020600020905b815481529060010190602001808311610cbb57829003601f168201915b505050505081565b6002546000908015610d0457610cff610cf7610bc1565b8490836139bb565b610d06565b825b9392505050565b3360008181526004602090815260408083206001600160a01b038716808552925280832085905551919290917f8c5be1e5ebec7d5bd14f71427d1e84f3dd0314c0f7b2291e5b200ac8c7c3b92590610d689086815260200190565b60405180910390a35060015b92915050565b6002546000908015610d0457610cff81610d92610bc1565b8591906139d9565b610da333612f26565b610dc85760405162461bcd60e51b8152600401610dbf9061502e565b60405180910390fd5b33600090815260126020526040812060010154610de490612ad1565b3360009081526012602052604081206001015491925090610e04906139ff565b600d54604051631a4ca37b60e21b81526001600160a01b037f000000000000000000000000000000000000000000000000000000000000000081166004830152602482018690523060448301529293509116906369328dec906064016020604051808303816000875af1158015610e7f573d6000803e3d6000fd5b505050506040513d601f19601f82011682018060405250810190610ea39190614fe1565b506000806000610eb285613ad3565b9250925092506000610ec48286613bb1565b60095460405163095ea7b360e01b81529192506001600160a01b037f000000000000000000000000000000000000000000000000000000000000000081169263095ea7b392610f199216908890600401615074565b6020604051808303816000875af1158015610f38573d6000803e3d6000fd5b505050506040513d601f19601f82011682018060405250810190610f5c919061508d565b5060095460405163a9059cbb60e01b81526001600160a01b037f000000000000000000000000000000000000000000000000000000000000000081169263a9059cbb92610fb29291909116908890600401615074565b6020604051808303816000875af1158015610fd1573d6000803e3d6000fd5b505050506040513d601f19601f82011682018060405250810190610ff5919061508d565b5060405163095ea7b360e01b81526001600160a01b037f0000000000000000000000000000000000000000000000000000000000000000169063095ea7b390611044908a908790600401615074565b6020604051808303816000875af1158015611063573d6000803e3d6000fd5b505050506040513d601f19601f82011682018060405250810190611087919061508d565b5060405163a9059cbb60e01b81526001600160a01b037f0000000000000000000000000000000000000000000000000000000000000000169063a9059cbb906110d6908a908790600401615074565b6020604051808303816000875af11580156110f5573d6000803e3d6000fd5b505050506040513d601f19601f82011682018060405250810190611119919061508d565b50600b5460405163095ea7b360e01b81526001600160a01b039091169063095ea7b39061114c908a908590600401615074565b6020604051808303816000875af115801561116b573d6000803e3d6000fd5b505050506040513d601f19601f8201168201806040525081019061118f919061508d565b50600b5460405163a9059cbb60e01b81526001600160a01b039091169063a9059cbb906111c2908a908590600401615074565b6020604051808303816000875af11580156111e1573d6000803e3d6000fd5b505050506040513d601f19601f82011682018060405250810190611205919061508d565b5061121233600080613c10565b60408051858152602081018590529081018290526001600160a01b0388169033907f9137e112a187039f8a3291c0a66fce97153d25ec42036e82360d5d0106d19a6e906060015b60405180910390a350505050505050565b600061127533612f26565b6112915760405162461bcd60e51b8152600401610dbf9061502e565b600061129c83612ad1565b905060006112ab826014613d45565b905060006112ba826064613dc7565b93505050505b919050565b6001600160a01b03831660009081526004602090815260408083203384529091528120546000198114611321576112fc83826150c5565b6001600160a01b03861660009081526004602090815260408083203384529091529020555b6001600160a01b038516600090815260036020526040812080548592906113499084906150c5565b90915550506001600160a01b03808516600081815260036020526040908190208054870190555190918716906000805160206155df833981519152906113929087815260200190565b60405180910390a3506001949350505050565b6113ae33612f26565b6113ca5760405162461bcd60e51b8152600401610dbf9061502e565b600082116114255760405162461bcd60e51b815260206004820152602260248201527f7769746864726177206d7573742062652067726561746572207468616e207a65604482015261726f60f01b6064820152608401610dbf565b6001600160a01b03811661146a5760405162461bcd60e51b815260206004820152600c60248201526b7a65726f206164647265737360a01b6044820152606401610dbf565b336000908152601260205260409020600101548211156114c05760405162461bcd60e51b81526020600482015260116024820152704e6f7420656e6f7567682073686172657360781b6044820152606401610dbf565b6114c981610d9a565b600d54604051631a4ca37b60e21b81526001600160a01b037f000000000000000000000000000000000000000000000000000000000000000081166004830152602482018590528381166044830152909116906369328dec906064016020604051808303816000875af1158015611544573d6000803e3d6000fd5b505050506040513d601f19601f820116820180604052508101906115689190614fe1565b506115733383613e09565b61157f33836000613c10565b816010600082825461159191906150c5565b90915550506040518281526001600160a01b0382169033907f9b1bfa7fa9ee420a16e124f794c35ac9f90472acc99140eb2f6447c714cad8eb906020015b60405180910390a35050565b6008546001600160a01b031633146116055760405162461bcd60e51b8152600401610dbf906150d8565b600b5460405163095ea7b360e01b81526001600160a01b039091169063095ea7b3906116379033908590600401615074565b6020604051808303816000875af1158015611656573d6000803e3d6000fd5b505050506040513d601f19601f8201168201806040525081019061167a919061508d565b50600b5460405163a9059cbb60e01b81526001600160a01b039091169063a9059cbb906116ad9033908590600401615074565b6020604051808303816000875af11580156116cc573d6000803e3d6000fd5b505050506040513d601f19601f820116820180604052508101906116f0919061508d565b5050565b6000806001600160a01b0384166117465760405162461bcd60e51b8152602060048201526016602482015275496e76616c696420746f6b656e30206164647265737360501b6044820152606401610dbf565b6001600160a01b0383166117955760405162461bcd60e51b8152602060048201526016602482015275496e76616c696420746f6b656e31206164647265737360501b6044820152606401610dbf565b600f5460405163e6a4390560e01b81526001600160a01b0386811660048301528581166024830152600092169063e6a4390590604401602060405180830381865afa1580156117e8573d6000803e3d6000fd5b505050506040513d601f19601f8201168201806040525081019061180c9190615119565b90506001600160a01b03811661185a5760405162461bcd60e51b815260206004820152601360248201527214185a5c88191bd95cc81b9bdd08195e1a5cdd606a1b6044820152606401610dbf565b600080611868838888613e6b565b90955093505050505b9250929050565b600080600061188786866116f4565b915091506000611898858484613f2b565b979650505050505050565b60007f000000000000000000000000000000000000000000000000000000000000000046146118d457610c4d613fd3565b507f000000000000000000000000000000000000000000000000000000000000000090565b60068054610c5f90614ffa565b6040516370a0823160e01b81526001600160a01b0382811660048301526000917f0000000000000000000000000000000000000000000000000000000000000000909116906370a0823190602401602060405180830381865afa158015611971573d6000803e3d6000fd5b505050506040513d601f19601f82011682018060405250810190610d749190614fe1565b600082116119de5760405162461bcd60e51b81526020600482015260166024820152754465706f736974206c657373207468616e207a65726f60501b6044820152606401610dbf565b6001600160a01b038116611a235760405162461bcd60e51b815260206004820152600c60248201526b7a65726f206164647265737360a01b6044820152606401610dbf565b6040516323b872dd60e01b81526001600160a01b037f000000000000000000000000000000000000000000000000000000000000000016906323b872dd90611a7390339030908790600401615136565b6020604051808303816000875af1158015611a92573d6000803e3d6000fd5b505050506040513d601f19601f82011682018060405250810190611ab6919061508d565b50600d5460405163095ea7b360e01b81526001600160a01b037f000000000000000000000000000000000000000000000000000000000000000081169263095ea7b392611b0c9291909116908690600401615074565b6020604051808303816000875af1158015611b2b573d6000803e3d6000fd5b505050506040513d601f19601f82011682018060405250810190611b4f919061508d565b50600d5460405163617ba03760e01b81526001600160a01b037f00000000000000000000000000000000000000000000000000000000000000008116600483015260248201859052306044830152600060648301529091169063617ba03790608401600060405180830381600087803b158015611bcb57600080fd5b505af1158015611bdf573d6000803e3d6000fd5b50505050611bed818361406d565b611bf633612f26565b15611c0c57611c0733836001613c10565b611c16565b611c1633836140bf565b601054600003611c2557426011555b8160106000828254611c37919061515a565b90915550506040518281526001600160a01b0382169033907f5548c837ab068cf56a2c2479df0882a4922fd203edb7517321831d95078c5f62906020016115cf565b60408051600280825260608083018452600093909291906020830190803683370190505090508681600081518110611cb357611cb3615183565b60200260200101906001600160a01b031690816001600160a01b0316815250508581600181518110611ce757611ce7615183565b6001600160a01b0392831660209182029290920101526040516323b872dd60e01b8152908816906323b872dd90611d2690339030908a90600401615136565b6020604051808303816000875af1158015611d45573d6000803e3d6000fd5b505050506040513d601f19601f82011682018060405250810190611d69919061508d565b50600e5460405163095ea7b360e01b81526001600160a01b038981169263095ea7b392611d9e92909116908990600401615074565b6020604051808303816000875af1158015611dbd573d6000803e3d6000fd5b505050506040513d601f19601f82011682018060405250810190611de1919061508d565b50600e546040516338ed173960e01b81526000916001600160a01b0316906338ed173990611e1b908990899087908a904290600401615199565b6000604051808303816000875af1158015611e3a573d6000803e3d6000fd5b505050506040513d6000823e601f3d908101601f19168201604052611e62919081019061520c565b905080600181518110611e7757611e77615183565b60200260200101519250505095945050505050565b6000610d7482610ce0565b611ecb604051806080016040528060006001600160a01b031681526020016000815260200160008152602001600081525090565b6001600160a01b0382811660009081526012602052604090205416611f025760405162461bcd60e51b8152600401610dbf906152be565b506001600160a01b0390811660009081526012602090815260409182902082516080810184528154909416845260018101549184019190915260028101549183019190915260030154606082015290565b6008546001600160a01b03163314611f7d5760405162461bcd60e51b8152600401610dbf906150d8565b600b546040516323b872dd60e01b81526001600160a01b03909116906323b872dd906116ad90339030908690600401615136565b6000611fbc836139b0565b905080600003611ffc5760405162461bcd60e51b815260206004820152600b60248201526a5a45524f5f53484152455360a81b6044820152606401610dbf565b6120316001600160a01b037f0000000000000000000000000000000000000000000000000000000000000000163330866141c3565b61203b828261406d565b60408051848152602081018390526001600160a01b0384169133917fdcbc1c05240f31ff3ad067ef1ee35ce4997762752e3a095284754544f4c709d791015b60405180910390a3610d74565b600061209233612f26565b6120ae5760405162461bcd60e51b8152600401610dbf9061502e565b60006120b983612ad1565b905060006112ab826028613d45565b6040516323b872dd60e01b81526000906001600160a01b038716906323b872dd906120fb90339030908990600401615136565b6020604051808303816000875af115801561211a573d6000803e3d6000fd5b505050506040513d601f19601f8201168201806040525081019061213e919061508d565b506040516323b872dd60e01b81526001600160a01b038616906323b872dd9061216f90339030908890600401615136565b6020604051808303816000875af115801561218e573d6000803e3d6000fd5b505050506040513d601f19601f820116820180604052508101906121b2919061508d565b50600e5460405163095ea7b360e01b81526001600160a01b038881169263095ea7b3926121e792909116908890600401615074565b6020604051808303816000875af1158015612206573d6000803e3d6000fd5b505050506040513d601f19601f8201168201806040525081019061222a919061508d565b50600e5460405163095ea7b360e01b81526001600160a01b038781169263095ea7b39261225f92909116908790600401615074565b6020604051808303816000875af115801561227e573d6000803e3d6000fd5b505050506040513d601f19601f820116820180604052508101906122a2919061508d565b5060006122b142610e1061515a565b600e5460405162e8e33760e81b81526001600160a01b038a811660048301528981166024830152604482018990526064820188905260016084830181905260a483015286811660c483015260e482018490529293506000928392839291169063e8e3370090610104016060604051808303816000875af1158015612339573d6000803e3d6000fd5b505050506040513d601f19601f8201168201806040525081019061235d91906152eb565b925092509250600083116123c65760405162461bcd60e51b815260206004820152602a60248201527f5761726e696e6721204f757470757420616d6f756e74206f6620746f6b656e2060448201526931206973207a65726f2160b01b6064820152608401610dbf565b600082116124295760405162461bcd60e51b815260206004820152602a60248201527f5761726e696e6721204f757470757420616d6f756e74206f6620746f6b656e2060448201526932206973207a65726f2160b01b6064820152608401610dbf565b9998505050505050505050565b6040805160028082526060808301845260009390929190602083019080368337019050509050868160008151811061247057612470615183565b60200260200101906001600160a01b031690816001600160a01b03168152505085816001815181106124a4576124a4615183565b6001600160a01b0392831660209182029290920101526040516323b872dd60e01b8152908816906323b872dd906124e390339030908990600401615136565b6020604051808303816000875af1158015612502573d6000803e3d6000fd5b505050506040513d601f19601f82011682018060405250810190612526919061508d565b50600e5460405163095ea7b360e01b81526001600160a01b038981169263095ea7b39261255b92909116908890600401615074565b6020604051808303816000875af115801561257a573d6000803e3d6000fd5b505050506040513d601f19601f8201168201806040525081019061259e919061508d565b50600e54604051634401edf760e11b81526000916001600160a01b031690638803dbee906125d8908990899087908a904290600401615199565b6000604051808303816000875af11580156125f7573d6000803e3d6000fd5b505050506040513d6000823e601f3d908101601f1916820160405261261f919081019061520c565b9050848160008151811061263557612635615183565b602002602001015110156126e0576000612669868360008151811061265c5761265c615183565b602002602001015161425f565b60405163a9059cbb60e01b81529091506001600160a01b038a169063a9059cbb9061269a9088908590600401615074565b6020604051808303816000875af11580156126b9573d6000803e3d6000fd5b505050506040513d601f19601f820116820180604052508101906126dd919061508d565b50505b80600181518110611e7757611e77615183565b60006126fe33612f26565b61271a5760405162461bcd60e51b8152600401610dbf9061502e565b6000612725836139ff565b905060007f00000000000000000000000000000000000000000000000000000000000000006001600160a01b031663313ce5676040518163ffffffff1660e01b8152600401602060405180830381865afa158015612787573d6000803e3d6000fd5b505050506040513d601f19601f820116820180604052508101906127ab9190615319565b60ff1690506000600a60009054906101000a90046001600160a01b03166001600160a01b031663313ce5676040518163ffffffff1660e01b8152600401602060405180830381865afa158015612805573d6000803e3d6000fd5b505050506040513d601f19601f820116820180604052508101906128299190615319565b60ff169050600061283986612ad1565b90506000612848826028613d45565b90506000612857826064613dc7565b600a549091506000907f00000000000000000000000000000000000000000000000000000000000000006001600160a01b039081169116146129ac57848611156129415760006128a7878761425f565b905060006128bf846128ba84600a61541a565b613d45565b600a549091506000906128fd907f0000000000000000000000000000000000000000000000000000000000000000906001600160a01b0316846130b4565b600a54600b54919250600091612920916001600160a01b039081169116846130b4565b90506129368161293186600a61541a565b613dc7565b9450505050506129cc565b8486116129a757600a54600090612983907f0000000000000000000000000000000000000000000000000000000000000000906001600160a01b0316856130b4565b600a54600b549192506129a3916001600160a01b039182169116836130b4565b9150505b6129cc565b600a54600b546129c9916001600160a01b039081169116846130b4565b90505b60006129d88883613bb1565b9a9950505050505050505050565b60078054610c5f90614ffa565b6000806129fe6142a1565b90506000612a0d826050613d45565b90506000612a1c826064613dc7565b90506000612a2c826103e8613bb1565b95945050505050565b6000612a4083612f91565b9050612a776001600160a01b037f0000000000000000000000000000000000000000000000000000000000000000163330846141c3565b612a81828461406d565b60408051828152602081018590526001600160a01b0384169133917fdcbc1c05240f31ff3ad067ef1ee35ce4997762752e3a095284754544f4c709d7910161207a565b60018054610c5f90614ffa565b6000612adc33612f26565b612af85760405162461bcd60e51b8152600401610dbf9061502e565b33600090815260126020526040902060010154821115612b565760405162461bcd60e51b8152602060048201526019602482015278088cae0dee6d2e840c2dadeeadce840dcdee840cadcdeeaced603b1b6044820152606401610dbf565b6000612b606142fa565b6010549091506000612b706143af565b33600090815260126020526040812060030154919250908103612bb15733600090815260126020526040902060020154612baa90426150c5565b9050612bd1565b33600090815260126020526040902060030154612bce90426150c5565b90505b6000612bdd8783613d45565b90506000612beb8285613d45565b90506000612bf98688613d45565b905060006129d88383613dc7565b33600090815260036020526040812080548391908390612c289084906150c5565b90915550506001600160a01b038316600081815260036020526040908190208054850190555133906000805160206155df83398151915290610d689086815260200190565b6008546001600160a01b03163314612c975760405162461bcd60e51b8152600401610dbf906150d8565b601154612ca79062093a8061515a565b421015612d125760405162461bcd60e51b815260206004820152603360248201527f4e6f7420656e6f7567682074696d6520686173207061737365642073696e6365604482015272081d1a19481b185cdd081c9959195c1bdcda5d606a1b6064820152608401610dbf565b6000612d1c6143af565b600d54604051631a4ca37b60e21b81526001600160a01b037f000000000000000000000000000000000000000000000000000000000000000081166004830152602482018490523060448301529293509116906369328dec906064016020604051808303816000875af1158015612d97573d6000803e3d6000fd5b505050506040513d601f19601f82011682018060405250810190612dbb9190614fe1565b50600d5460405163095ea7b360e01b81526001600160a01b037f000000000000000000000000000000000000000000000000000000000000000081169263095ea7b392612e119291909116908590600401615074565b6020604051808303816000875af1158015612e30573d6000803e3d6000fd5b505050506040513d601f19601f82011682018060405250810190612e54919061508d565b50600d5460405163617ba03760e01b81526001600160a01b037f00000000000000000000000000000000000000000000000000000000000000008116600483015260248201849052306044830152600060648301529091169063617ba03790608401600060405180830381600087803b158015612ed057600080fd5b505af1158015612ee4573d6000803e3d6000fd5b5050426011555050604051818152309033907f277c20ffddb36a3964545fd62d549ea5f59992d149526b0df285b724fa08ad079060200160405180910390a350565b600080612f3161387c565b905060005b8151811015612f8757836001600160a01b0316828281518110612f5b57612f5b615183565b6020026020010151600001516001600160a01b031603612f7f575060019392505050565b600101612f36565b5060009392505050565b6002546000908015610d0457610cff612fa8610bc1565b8490836139d9565b6000612fbb84610d7a565b9050336001600160a01b0383161461302b576001600160a01b038216600090815260046020908152604080832033845290915290205460001981146130295761300482826150c5565b6001600160a01b03841660009081526004602090815260408083203384529091529020555b505b6130358282613e09565b60408051858152602081018390526001600160a01b03808516929086169133917ffbde797d201c681b91056529119e0b02407c7bb96a4a2c75c01fc9667232c8db910160405180910390a4610d066001600160a01b037f00000000000000000000000000000000000000000000000000000000000000001684866143cc565b60008060006130c386866116f4565b91509150600061189885848461444d565b6000336001600160a01b03831614613144576001600160a01b038216600090815260046020908152604080832033845290915290205460001981146131425761311d85826150c5565b6001600160a01b03841660009081526004602090815260408083203384529091529020555b505b61314d84611e8c565b90508060000361318d5760405162461bcd60e51b815260206004820152600b60248201526a5a45524f5f41535345545360a81b6044820152606401610dbf565b6131978285613e09565b60408051828152602081018690526001600160a01b03808516929086169133917ffbde797d201c681b91056529119e0b02407c7bb96a4a2c75c01fc9667232c8db910160405180910390a4610d066001600160a01b037f00000000000000000000000000000000000000000000000000000000000000001684836143cc565b6002546000908015610d0457610cff8161322e610bc1565b8591906139bb565b600f5460405163e6a4390560e01b81526001600160a01b0386811660048301528581166024830152600092839283929091169063e6a4390590604401602060405180830381865afa15801561328f573d6000803e3d6000fd5b505050506040513d601f19601f820116820180604052508101906132b39190615119565b90506001600160a01b0381166133015760405162461bcd60e51b815260206004820152601360248201527214185a5c88191bd95cc81b9bdd08195e1a5cdd606a1b6044820152606401610dbf565b6040516370a0823160e01b81523360048201526000906001600160a01b038316906370a0823190602401602060405180830381865afa158015613348573d6000803e3d6000fd5b505050506040513d601f19601f8201168201806040525081019061336c9190614fe1565b9050600081116133f25760405162461bcd60e51b8152602060048201526044602482018190527f546869732070616972277320746f74616c416d6f756e7454564c206973207374908201527f696c6c20302e20506c6561736520616464206c697175696469747920617420666064820152631a5c9cdd60e21b608482015260a401610dbf565b858110156134765760405162461bcd60e51b815260206004820152604560248201527f546869732076616c7565206973206c61726765206d6f7265207468616e20746f60448201527f74616c207661756c652e20506c65617365206368616e676520696e707574207660648201526430bab6329760d91b608482015260a401610dbf565b6040516323b872dd60e01b81526001600160a01b038316906323b872dd906134a690339030908b90600401615136565b6020604051808303816000875af11580156134c5573d6000803e3d6000fd5b505050506040513d601f19601f820116820180604052508101906134e9919061508d565b50600e5460405163095ea7b360e01b81526001600160a01b038481169263095ea7b39261351e92909116908a90600401615074565b6020604051808303816000875af115801561353d573d6000803e3d6000fd5b505050506040513d601f19601f82011682018060405250810190613561919061508d565b50600061357042610e1061515a565b600e54604051635d5155ef60e11b81526001600160a01b038c811660048301528b81166024830152604482018b9052600060648301819052608483018190528a821660a484015260c483018590529394508392169063baa2abde9060e40160408051808303816000875af11580156135ec573d6000803e3d6000fd5b505050506040513d601f19601f820116820180604052508101906136109190615426565b909c909b509950505050505050505050565b6001600160a01b038116600090815260036020526040812054610d7490610ce0565b428410156136945760405162461bcd60e51b815260206004820152601760248201527f5045524d49545f444541444c494e455f455850495245440000000000000000006044820152606401610dbf565b600060016136a06118a3565b6001600160a01b038a811660008181526005602090815260409182902080546001810190915582517f6e71edae12b1b97f4d1f60370fef10105fa2faae0126114a169c64845d6126c98184015280840194909452938d166060840152608083018c905260a083019390935260c08083018b90528151808403909101815260e08301909152805192019190912061190160f01b6101008301526101028201929092526101228101919091526101420160408051601f198184030181528282528051602091820120600084529083018083525260ff871690820152606081018590526080810184905260a0016020604051602081039080840390855afa1580156137ac573d6000803e3d6000fd5b5050604051601f1901519150506001600160a01b038116158015906137e25750876001600160a01b0316816001600160a01b0316145b61381f5760405162461bcd60e51b815260206004820152600e60248201526d24a72b20a624a22fa9a4a3a722a960911b6044820152606401610dbf565b6001600160a01b0390811660009081526004602090815260408083208a8516808552908352928190208990555188815291928a16917f8c5be1e5ebec7d5bd14f71427d1e84f3dd0314c0f7b2291e5b200ac8c7c3b9259101611259565b60135460609060009067ffffffffffffffff81111561389d5761389d61516d565b60405190808252806020026020018201604052801561390257816020015b6138ef604051806080016040528060006001600160a01b031681526020016000815260200160008152602001600081525090565b8152602001906001900390816138bb5790505b50905060005b6013548110156139aa57601260006013838154811061392957613929615183565b60009182526020808320909101546001600160a01b039081168452838201949094526040928301909120825160808101845281549094168452600181015491840191909152600281015491830191909152600301546060820152825183908390811061399757613997615183565b6020908102919091010152600101613908565b50919050565b6000610d7482613216565b60008260001904841183021582026139d257600080fd5b5091020490565b60008260001904841183021582026139f057600080fd5b50910281810615159190040190565b6000613a0a33612f26565b613a265760405162461bcd60e51b8152600401610dbf9061502e565b33600090815260126020526040902060010154821115613a845760405162461bcd60e51b8152602060048201526019602482015278088cae0dee6d2e840c2dadeeadce840dcdee840cadcdeeaced603b1b6044820152606401610dbf565b6000613a8e6142a1565b90506000613a9b84612ad1565b90506103e86000613aac8284613d45565b90506000613aba8286613dc7565b90506000613ac782614520565b98975050505050505050565b600080600080613ae4856014613d45565b9050613af1816064613dc7565b93506000613b00866028613d45565b9050613b0d816064613dc7565b600a5490945084907f00000000000000000000000000000000000000000000000000000000000000006001600160a01b03908116911614613b8657600a54613b83907f0000000000000000000000000000000000000000000000000000000000000000906001600160a01b031683600130614790565b90505b600a54600b54613ba6916001600160a01b03908116911683600130614790565b959794965050505050565b600080613bbe838561515a565b905083811015610d065760405162461bcd60e51b815260206004820152601b60248201527f536166654d6174683a206164646974696f6e206f766572666c6f7700000000006044820152606401610dbf565b6001600160a01b0383811660009081526012602052604090205416613c475760405162461bcd60e51b8152600401610dbf906152be565b6001600160a01b03831660009081526012602052604090208115613c8357613c73816001015484613bb1565b6001820155426002820155613d3f565b8281600101541015613d0e5760405162461bcd60e51b815260206004820152604860248201527f576974686472617720616d6f756e74206973206d6f7265207468616e2064657060448201527f6f736974656420616d6f756e742e204368616e676520746865207769746864726064820152676177207661756c6560c01b608482015260a401610dbf565b613d1c81600101548461425f565b60018201819055600003613d3857613d338461483f565b613d3f565b4260038201555b50505050565b600082600003613d5757506000610d74565b6000613d63838561544a565b905082613d708583615461565b14610d065760405162461bcd60e51b815260206004820152602160248201527f536166654d6174683a206d756c7469706c69636174696f6e206f766572666c6f6044820152607760f81b6064820152608401610dbf565b6000610d0683836040518060400160405280601a81526020017f536166654d6174683a206469766973696f6e206279207a65726f000000000000815250614984565b6001600160a01b03821660009081526003602052604081208054839290613e319084906150c5565b90915550506002805482900390556040518181526000906001600160a01b038416906000805160206155df833981519152906020016115cf565b6000806000613e7a85856149b2565b509050600080876001600160a01b0316630902f1ac6040518163ffffffff1660e01b8152600401606060405180830381865afa158015613ebe573d6000803e3d6000fd5b505050506040513d601f19601f82011682018060405250810190613ee2919061549a565b506001600160701b031691506001600160701b03169150826001600160a01b0316876001600160a01b031614613f19578082613f1c565b81815b90999098509650505050505050565b6000808411613f8a5760405162461bcd60e51b815260206004820152602560248201527f556e697377617056324c6962726172793a20494e53554646494349454e545f416044820152641353d5539560da1b6064820152608401610dbf565b600083118015613f9a5750600082115b613fb65760405162461bcd60e51b8152600401610dbf906154df565b82613fc18584614aa2565b613fcb9190615461565b949350505050565b60007f8b73c3c69bb8fe3d512ecc4cf759cc79239f7b179b0ffacaa9a75d522b39400f60006040516140059190615527565b6040805191829003822060208301939093528101919091527fc89efdaa54c0f20c7adf612882df0950f5a951637e0307cdcb4c672f298b8bc660608201524660808201523060a082015260c00160405160208183030381529060405280519060200120905090565b806002600082825461407f919061515a565b90915550506001600160a01b0382166000818152600360209081526040808320805486019055518481526000805160206155df83398151915291016115cf565b6001600160a01b03828116600090815260126020526040902054161561411d5760405162461bcd60e51b81526020600482015260136024820152725573657220616c72656164792065786973747360681b6044820152606401610dbf565b604080516080810182526001600160a01b0393841680825260208083019485524283850190815260006060850181815284825260129093529485209351845497166001600160a01b0319978816178455945160018085019190915594516002840155516003909201919091556013805493840181559091527f66de8ffda797e3de9c05e8fc57b3bf0ec28a930d40b0d285d93c06501cf6a0909091018054909216179055565b60006040516323b872dd60e01b81526001600160a01b03851660048201526001600160a01b03841660248201528260448201526020600060648360008a5af13d15601f3d11600160005114161716915050806142585760405162461bcd60e51b81526020600482015260146024820152731514905394d1915497d19493d357d1905253115160621b6044820152606401610dbf565b5050505050565b6000610d0683836040518060400160405280601e81526020017f536166654d6174683a207375627472616374696f6e206f766572666c6f770000815250614b09565b6000806142ac6142fa565b60105490915060006142bc6143af565b905060006142ce826301e13380613d45565b905060006142dc8286613dc7565b905060006142ec82612710613d45565b90506000613ac78287613dc7565b60008061430561387c565b90506000805b82518110156143a857600083828151811061432857614328615183565b602002602001015160600151600003614369576143624285848151811061435157614351615183565b60200260200101516040015161425f565b9050614393565b6143904285848151811061437f5761437f615183565b60200260200101516060015161425f565b90505b61439d8184613bb1565b92505060010161430b565b5092915050565b6000806143ba614b3a565b6010549091506000613fcb838361425f565b600060405163a9059cbb60e01b81526001600160a01b0384166004820152826024820152602060006044836000895af13d15601f3d1160016000511416171691505080613d3f5760405162461bcd60e51b815260206004820152600f60248201526e1514905394d1915497d19052531151608a1b6044820152606401610dbf565b60008084116144b25760405162461bcd60e51b815260206004820152602b60248201527f556e697377617056324c6962726172793a20494e53554646494349454e545f4960448201526a1394155517d05353d5539560aa1b6064820152608401610dbf565b6000831180156144c25750600082115b6144de5760405162461bcd60e51b8152600401610dbf906154df565b60006144ec856103e5614aa2565b905060006144fa8285614aa2565b905060006145148361450e886103e8614aa2565b90614b6b565b90506118988183615461565b6000807f00000000000000000000000000000000000000000000000000000000000000006001600160a01b031663313ce5676040518163ffffffff1660e01b8152600401602060405180830381865afa158015614581573d6000803e3d6000fd5b505050506040513d601f19601f820116820180604052508101906145a59190615319565b60ff1690506000600a60009054906101000a90046001600160a01b03166001600160a01b031663313ce5676040518163ffffffff1660e01b8152600401602060405180830381865afa1580156145ff573d6000803e3d6000fd5b505050506040513d601f19601f820116820180604052508101906146239190615319565b600a5460ff9190911691506000907f00000000000000000000000000000000000000000000000000000000000000006001600160a01b039081169116146147735781831115614708576000614678848461425f565b9050600061468b876128ba84600a61541a565b600a549091506000906146c9907f0000000000000000000000000000000000000000000000000000000000000000906001600160a01b031684611878565b600a54600b549192506000916146ec916001600160a01b03908116911684611878565b90506146fd8161293186600a61541a565b945050505050613fcb565b81831161476e57600a5460009061474a907f0000000000000000000000000000000000000000000000000000000000000000906001600160a01b031688611878565b600a54600b5491925061476a916001600160a01b03918216911683611878565b9150505b613fcb565b600a54600b546112ba916001600160a01b03908116911687611878565b604080516002808252606080830184526000939092919060208301908036833701905050905086816000815181106147ca576147ca615183565b60200260200101906001600160a01b031690816001600160a01b03168152505085816001815181106147fe576147fe615183565b6001600160a01b039283166020918202929092010152600e5460405163095ea7b360e01b81528983169263095ea7b392611d9e929116908990600401615074565b6001600160a01b03818116600090815260126020526040902054166148765760405162461bcd60e51b8152600401610dbf906152be565b6001600160a01b038116600090815260126020526040812080546001600160a01b031916815560018101829055600281018290556003018190556148b982614bc0565b6013549091506148cb906001906150c5565b81101561494d57601380546148e2906001906150c5565b815481106148f2576148f2615183565b600091825260209091200154601380546001600160a01b03909216918390811061491e5761491e615183565b9060005260206000200160006101000a8154816001600160a01b0302191690836001600160a01b031602179055505b601380548061495e5761495e6155c8565b600082815260209020810160001990810180546001600160a01b03191690550190555050565b600081836149a55760405162461bcd60e51b8152600401610dbf9190614c5c565b506000612a2c8486615461565b600080826001600160a01b0316846001600160a01b031603614a245760405162461bcd60e51b815260206004820152602560248201527f556e697377617056324c6962726172793a204944454e544943414c5f41444452604482015264455353455360d81b6064820152608401610dbf565b826001600160a01b0316846001600160a01b031610614a44578284614a47565b83835b90925090506001600160a01b0382166118715760405162461bcd60e51b815260206004820152601e60248201527f556e697377617056324c6962726172793a205a45524f5f4144445245535300006044820152606401610dbf565b6000811580614ac657508282614ab8818361544a565b9250614ac49083615461565b145b610d745760405162461bcd60e51b815260206004820152601460248201527364732d6d6174682d6d756c2d6f766572666c6f7760601b6044820152606401610dbf565b60008184841115614b2d5760405162461bcd60e51b8152600401610dbf9190614c5c565b506000612a2c84866150c5565b600c546040516370a0823160e01b81523060048201526000916001600160a01b0316906370a0823190602401610c0c565b600082614b78838261515a565b9150811015610d745760405162461bcd60e51b815260206004820152601460248201527364732d6d6174682d6164642d6f766572666c6f7760601b6044820152606401610dbf565b6000805b601354811015614c1357826001600160a01b031660138281548110614beb57614beb615183565b6000918252602090912001546001600160a01b031603614c0b5792915050565b600101614bc4565b5060405162461bcd60e51b815260206004820152601e60248201527f55736572206e6f7420666f756e6420696e2074686520757365724c69737400006044820152606401610dbf565b60006020808352835180602085015260005b81811015614c8a57858101830151858201604001528201614c6e565b506000604082860101526040601f19601f8301168501019250505092915050565b600060208284031215614cbd57600080fd5b5035919050565b6001600160a01b0381168114614cd957600080fd5b50565b60008060408385031215614cef57600080fd5b8235614cfa81614cc4565b946020939093013593505050565b600060208284031215614d1a57600080fd5b8135610d0681614cc4565b600080600060608486031215614d3a57600080fd5b8335614d4581614cc4565b92506020840135614d5581614cc4565b929592945050506040919091013590565b60008060408385031215614d7957600080fd5b823591506020830135614d8b81614cc4565b809150509250929050565b60008060408385031215614da957600080fd5b8235614db481614cc4565b91506020830135614d8b81614cc4565b600080600080600060a08688031215614ddc57600080fd5b8535614de781614cc4565b94506020860135614df781614cc4565b935060408601359250606086013591506080860135614e1581614cc4565b809150509295509295909350565b81516001600160a01b0316815260208083015190820152604080830151908201526060808301519082015260808101610d74565b600080600060608486031215614e6c57600080fd5b833592506020840135614e7e81614cc4565b91506040840135614e8e81614cc4565b809150509250925092565b60008060008060808587031215614eaf57600080fd5b8435614eba81614cc4565b93506020850135614eca81614cc4565b9250604085013591506060850135614ee181614cc4565b939692955090935050565b60ff81168114614cd957600080fd5b600080600080600080600060e0888a031215614f1657600080fd5b8735614f2181614cc4565b96506020880135614f3181614cc4565b955060408801359450606088013593506080880135614f4f81614eec565b9699959850939692959460a0840135945060c09093013592915050565b6020808252825182820181905260009190848201906040850190845b81811015614fd557614fc283855180516001600160a01b031682526020808201519083015260408082015190830152606090810151910152565b9284019260809290920191600101614f88565b50909695505050505050565b600060208284031215614ff357600080fd5b5051919050565b600181811c9082168061500e57607f821691505b6020821081036139aa57634e487b7160e01b600052602260045260246000fd5b60208082526026908201527f4f6e6c79207661756c7420757365722063616e2063616c6c20746869732066756040820152653731ba34b7b760d11b606082015260800190565b6001600160a01b03929092168252602082015260400190565b60006020828403121561509f57600080fd5b81518015158114610d0657600080fd5b634e487b7160e01b600052601160045260246000fd5b81810381811115610d7457610d746150af565b60208082526021908201527f4f6e6c79206f776e65722063616e2063616c6c20746869732066756e6374696f6040820152603760f91b606082015260800190565b60006020828403121561512b57600080fd5b8151610d0681614cc4565b6001600160a01b039384168152919092166020820152604081019190915260600190565b80820180821115610d7457610d746150af565b634e487b7160e01b600052604160045260246000fd5b634e487b7160e01b600052603260045260246000fd5b600060a08201878352602087602085015260a0604085015281875180845260c08601915060208901935060005b818110156151eb5784516001600160a01b0316835293830193918301916001016151c6565b50506001600160a01b03969096166060850152505050608001529392505050565b6000602080838503121561521f57600080fd5b825167ffffffffffffffff8082111561523757600080fd5b818501915085601f83011261524b57600080fd5b81518181111561525d5761525d61516d565b8060051b604051601f19603f830116810181811085821117156152825761528261516d565b6040529182528482019250838101850191888311156152a057600080fd5b938501935b82851015613ac7578451845293850193928501926152a5565b602080825260139082015272155cd95c88191bd95cc81b9bdd08195e1a5cdd606a1b604082015260600190565b60008060006060848603121561530057600080fd5b8351925060208401519150604084015190509250925092565b60006020828403121561532b57600080fd5b8151610d0681614eec565b600181815b80851115615371578160001904821115615357576153576150af565b8085161561536457918102915b93841c939080029061533b565b509250929050565b60008261538857506001610d74565b8161539557506000610d74565b81600181146153ab57600281146153b5576153d1565b6001915050610d74565b60ff8411156153c6576153c66150af565b50506001821b610d74565b5060208310610133831016604e8410600b84101617156153f4575081810a610d74565b6153fe8383615336565b8060001904821115615412576154126150af565b029392505050565b6000610d068383615379565b6000806040838503121561543957600080fd5b505080516020909101519092909150565b8082028115828204841417610d7457610d746150af565b60008261547e57634e487b7160e01b600052601260045260246000fd5b500490565b80516001600160701b03811681146112c057600080fd5b6000806000606084860312156154af57600080fd5b6154b884615483565b92506154c660208501615483565b9150604084015163ffffffff81168114614e8e57600080fd5b60208082526028908201527f556e697377617056324c6962726172793a20494e53554646494349454e545f4c604082015267495155494449545960c01b606082015260800190565b60008083548160018260011c9150600183168061554557607f831692505b6020808410820361556457634e487b7160e01b86526022600452602486fd5b818015615578576001811461558d576155ba565b60ff19861689528415158502890196506155ba565b60008a81526020902060005b868110156155b25781548b820152908501908301615599565b505084890196505b509498975050505050505050565b634e487b7160e01b600052603160045260246000fdfeddf252ad1be2c89b69c2b068fc378daa952ba7f163c4a11628f55a4df523b3efa26469706673582212204b67f0befc2d23d5116e2cfdea870ddc3bc63fae962fab307d02522d892c63b264736f6c63430008170033",
  "linkReferences": {},
  "deployedLinkReferences": {}
}